:020000040800F2
:1000000028060020C501000847070008A1050008D0
:10001000450700080B050008A108000800000000C3
:100020000000000000000000000000006907000858
:100030000D050008000000004907000841080008FD
:10004000DF010008DF010008DF010008DF01000810
:10005000DF010008DF010008DF010008DF01000800
:10006000DF010008DF010008DF010008DF010008F0
:10007000DF010008DF010008DF010008DF010008E0
:10008000DF010008DF010008DF010008DF010008D0
:10009000DF010008DF010008DF010008DF010008C0
:1000A000DF010008DF010008DF010008DF010008B0
:1000B000DF010008DF010008DF010008DF010008A0
:1000C000DF010008DF010008DF010008DF01000890
:1000D000DF010008DF010008DF010008DF01000880
:1000E000DF010008DF010008DF010008DF01000870
:1000F000DF010008DF010008DF010008DF01000860
:10010000DF010008DF010008DF010008DF0100084F
:10011000DF010008DF010008DF010008DF0100083F
:10012000DF010008DF010008DF010008DF0100082F
:10013000DF010008DF010008DF010008DF0100081F
:10014000DF010008DF010008DF010008DF0100080F
:10015000DF010008DF010008DF010008DF010008FF
:10016000DF010008DF010008DF010008DF010008EF
:10017000DF010008DF010008DF010008DF010008DF
:10018000DF010008DF010008DF010008DF010008CF
:10019000DF010008DF010008DF010008DF010008BF
:1001A000DF010008DF010008DF010008DFF810D0E0
:1001B00000F08AF900480047790C0008AFF300808E
:1001C000280600200648804706480047FEE7FEE76D
:1001D000FEE7FEE7FEE7FEE7FEE7FEE7FEE7FEE7F7
:1001E00045080008AD010008D2B201E000F8012B7B
:1001F000491EFBD270470022F6E710B513460A46A7
:1002000004461946FFF7F0FF204610BD2DE9FE4FCA
:1002100081EA030404F0004421F0004100944FF00F
:10022000000B23F0004350EA01045ED052EA0304BD
:100230005BD0C3F30A54C1F30A552C44A4F2F3343F
:100240000194A0FB0254C1F3130141F48011C3F3E4
:10025000130343F4801301FB024400FB034E840AA2
:10026000970A44EA815447EA8357A4FB076802953A
:100270008D0A05FB07854FEA932C04FB0C542705D8
:10028000029D4FEA065847EA1637B5EB08056EEBB4
:10029000070C870E920E47EA811742EA8312A7FBEA
:1002A0000201B6EB0B0164EB00042B0D43EA0C33A7
:1002B0005E1844EB1C50DA465146E7FB0201C5F3D9
:1002C00013044FEA0B3343EA14534FEA0432019C00
:1002D00043EA0603A4F10C040294009CCDE900B4A7
:1002E00000F0A4F803B0BDE8F08F00200146F9E764
:1002F000C1F30A5210B5C1F3130140F2FF3341F4C8
:1003000080119A4201DA002010BD40F233439A4234
:10031000A2F2334203DC524200F032F810BD9040AA
:1003200010BD00F0004230F000400AD0C10D01F5D0
:100330006071C0F3160042EA0151C2084007114340
:10034000704700200146704701F0004330B421F0AF
:10035000004150EA010206D00A0DA2F56072C1F315
:100360001301002A02DC30BC00207047440F44EA2D
:10037000C104C100E01830BC00EBC25000F010B85E
:10038000202A04DB203A21FA02F00021704721FAEA
:1003900002F3D040C2F12002914008431946704751
:1003A0000029A8BF7047401C490008BF20F0010089
:1003B000704710B4B0FA80FC00FA0CF050EA010467
:1003C00004BF10BC704749B1CCF1200421FA04F4F9
:1003D00011FA0CF118BF012121430843A3EB0C01D2
:1003E000CB1D4FEA00614FEA102042BF002010BC35
:1003F000704700EBC35010440029A4BF10BC7047E5
:10040000401C490008BF20F0010010BC704710B527
:10041000141E73F1000408DA401C41F10001921827
:100420005B411A4301D120F0010010BD2DE9F04DD0
:1004300092469B4611B1B1FA81F202E0B0FA80F225
:100440002032904600F052F804460F4640EA0A0077
:1004500041EA0B0153465A46084313D0114653EA6A
:10046000010019D0C8F140025046FFF789FF054648
:100470000E4650465946424600F038F8084305D02B
:10048000012004E020463946BDE8F08D00200543F8
:1004900046EAE0762C4337430A986305E40AA0EB6A
:1004A00008000022FD0A44EA47540A3002D5002021
:1004B0000146E9E7010510196941DDE90845001920
:1004C0006941BDE8F04DA2E7064C074D06E0E06843
:1004D00040F0010394E8070098471034AC42F6D38B
:1004E000FFF768FEF40C0008140D0008202A04DB56
:1004F000203A00FA02F1002070479140C2F1200337
:1005000020FA03F3194390407047FEE770472DE946
:10051000F041002201274FF0030C07FA02F50B68A7
:100520002B40AB422CD1066853000CFA03F4A643CF
:1005300006600E79D0F800809E4046EA0806066004
:100540000E79012E01D0022E12D18668A643866054
:100550004E79D0F808809E4046EA080686604668D4
:10056000AE43466045688E799640B6B235434560E5
:10057000C568A543C560CC799C40C3681C43C46072
:10058000521C102AC9D3BDE8F0810246002012692E
:100590000A4200D0012070474183704701837047B1
:1005A000FEE7000010B500F035FB07494861C1695E
:1005B000C82088473C21012000F08EF8BDE810409B
:1005C000012000F003B800000000002070B50546CF
:1005D0001C4C60690168884760698168C820884749
:1005E00060690169884720B16069406880470020E0
:1005F00070BD6069816828468847606900698047E6
:1006000020B1606940688047002070BD6069006863
:10061000804760698168C9208847606900698047B0
:1006200020B1606940688047002070BD6069C06883
:1006300080470546606981698847606941688847E5
:10064000284670BD0000002070B50546214C606949
:100650000168884760698168C820884760690169C6
:10066000884720B1606940688047002070BD60699C
:1006700081682846884760690069804720B16069C1
:1006800040688047002070BD6069006880476069ED
:100690008168C920884760690069804720B1606926
:1006A00040688047002070BD6069C068804705468B
:1006B0006069406980476069C06880470646606934
:1006C0008069804760694068804746EA052080B2BB
:1006D00070BD00000000002070B506460D46184CA5
:1006E00060690268904760698268C82090476069C5
:1006F0000069804720B160694068BDE870400047EC
:10070000606982683046904760690069804720B11F
:1007100060694068BDE870400047606981682846AC
:10072000884760690069804720B160694068BDE81A
:100730007040004760694068BDE8704000470000B5
:1007400000000020FEE7704770470000054A0029BE
:1007500003D0116801431160704711688143116033
:100760007047000030380240704700001CB500217F
:10077000019100912E4A106840F4803010604FF4CF
:10078000A043106800F4003000900198401C0190D4
:10079000009810B901989842F3D11068800302D5EF
:1007A0000120009000E00091009801283FD12048EE
:1007B0004030016841F0805101601E49086840F4F2
:1007C000404008601A48083003680360036843F437
:1007D00000430360036843F4A0530360041F164BF7
:1007E0002360136843F08073136013689B01FCD58A
:1007F0000A6842F480320A604A68D203FCD50A686B
:1008000042F400320A604A689203FCD50B4A40F277
:1008100005711160016821F003010160016841F078
:10082000020101600168C1F381010229FAD11CBDF6
:100830000038024000700040195A4007003C024056
:100840007047000010B51248016841F47001016062
:100850001048016841F0010101600E4A0021083290
:10086000116002680C4B1A400260031D0B4A1A60AB
:10087000026822F48022026006480C300160FFF713
:1008800075FF03494FF000608039086010BD00001B
:1008900088ED00E000380240FFFFF6FE1030002433
:1008A000FEE702E008C8121F08C1002AFAD170470B
:1008B0007047002001E001C1121F002AFBD17047E0
:1008C00070B52DED028B0220FFF7BEFE0546194CD8
:1008D000DFED190A94ED040A20EE200A10EE100A4A
:1008E000FFF71FFDD4ED030A9FED141A41EC180B1E
:1008F00081EE200A10EE100AFFF713FD9FED101B8A
:1009000053EC112BFFF782FC53EC182BFFF77EFC06
:10091000FFF71AFD00EE100A84ED010A00EE905A6E
:10092000F8EE600A20EE200A84ED020ABDEC028B8C
:1009300070BD0000000000200000003C00004842A4
:10094000C3F5285C8FC2B53F10B50220FFF77CFECF
:1009500004460420FFF778FE00EE104AF8EE400A45
:1009600000EE100AB8EE401A80EE810A10EE100A6E
:10097000FFF7D7FC9FED051B53EC112BFFF746FC4F
:10098000FFF7B6FC0349C0B2087010BD00000000BC
:10099000000059400000002070B50E4D4FF4804417
:1009A00021462846FFF7F8FD00F054F80A4E0821CA
:1009B0003046FFF7F3FD00F04DF808213046FFF711
:1009C000EBFD00F047F821462846BDE87040FFF7F0
:1009D000E5BD000000180240000002401CB50121E6
:1009E0000846FFF7B3FE01214020FFF7AFFE0820C5
:1009F000009002208DF8050001208DF804008DF88C
:100A0000060000208DF8070069460648FFF77FFDC5
:100A10004FF48040009069460348FFF778FD00F0EE
:100A200087F81CBD000002400018024010B50446C3
:100A3000FFF7D4FF00F05AF8204600F0B7F800F0B6
:100A40008FF8034C207000F073F8207810BD000080
:100A5000180000200020401CC0B21E28FBD37047A5
:100A600010B54FF480410A48FFF798FDFFF7F2FFF9
:100A7000084C08212046FFF791FDFFF7EBFF082106
:100A80002046FFF789FDBDE81040FFF7E3BF0000F7
:100A900000180240000002402DE9F041002400252A
:100AA000DFF84080104E4FF480476006040E0821A6
:100AB0003046FFF773FDFFF7CDFF39464046FFF79D
:100AC00064FD08B1641CE4B208213046FFF764FD00
:100AD000FFF7C0FF6D1CEDB2082DE6D32046BDE840
:100AE000F0810000001802400000024070B50E4D79
:100AF0004FF4804421462846FFF750FD0B4E082155
:100B00003046FFF74BFDFFF7A5FF21462846FFF7CC
:100B100043FDFFF79FFF08213046FFF73DFDBDE88D
:100B20007040FFF797BF000000180240000002402D
:100B300070B5094D4FF4804421462846FFF72CFD3F
:100B400008210648FFF72AFDFFF784FF21462846C3
:100B5000BDE87040FFF722BD0018024000000240CF
:100B600070B5104D4FF4804421462846FFF716FD1E
:100B7000FFF770FF0C4E08213046FFF70FFDFFF71F
:100B800069FF21462846FFF700FD08B1012400E077
:100B9000002408213046FFF7FFFCFFF75BFF2046EB
:100BA00070BD000000180240000002402DE9F04135
:100BB00005460024154EDFF858804FF4804728067C
:100BC00004D539464046FFF7E9FC03E03946404684
:100BD000FFF7E2FCFFF73EFF08213046FFF7DEFC9F
:100BE000FFF738FF08213046FFF7D6FC072C03D16A
:100BF00039464046FFF7D2FC6806050EFFF72AFF8C
:100C0000641CE4B2082CDAD3BDE8F0810000024095
:100C10000018024010B50F4C6068002817D1202042
:100C200000F032F860602021FFF7E5FA60680A49B9
:100C300001600A4941600A4981600A49C1600A4964
:100C400001610A4941610A4981610A49C1616068DB
:100C500010BD000018000020ED0A0008310B00084C
:100C6000AD0B0008990A0008610B000899090008FB
:100C7000610A00082D0A0008FFF794FCFFF720FE28
:100C8000FFF762FEFEE70000F0B50B30154D20F0D7
:100C900007010024144A0FE003688B420BD38B42F8
:100CA00005D95E1A43184768C3E9006700E0436846
:100CB000136002C004E0021D10680028ECD1204639
:100CC000002802D1286808B10020F0BD064A074874
:100CD0001060074A121A22F00702C0E9002401201E
:100CE0002860D7E724000020200000202C000020EE
:100CF00028020020140D0008000000202800000039
:100D0000A20800083C0D0008280000200006000092
:100D1000B208000800000000000000000000000011
:100D20000000C84200000043000000000000000076
:0C0D3000000000000000000000000000B7
:04000005080001AD41
:00000001FF
