:020000040800F2
:10000000B04F0020C5010008CD010008CF01000855
:10001000D1010008D3010008D5010008000000004C
:10002000000000000000000000000000D7010008F0
:10003000D901000800000000DB010008DD01000814
:10004000DF010008DF010008DF010008DF01000810
:10005000DF010008DF010008DF010008DF01000800
:10006000DF010008DF010008DF010008DF010008F0
:10007000DF010008DF010008DF010008DF010008E0
:10008000DF010008DF010008DF010008DF010008D0
:10009000DF010008DF010008DF010008DF010008C0
:1000A000DF010008DF010008DF010008DF010008B0
:1000B0002D210008DF010008DF010008DF01000832
:1000C000DF010008DF010008DF010008DF01000890
:1000D000DF01000855290008DF010008DF010008E2
:1000E000DF010008DF010008DF010008DF01000870
:1000F000DF010008DF010008DF010008DF01000860
:10010000DF010008DF010008DF010008DF0100084F
:10011000DF010008DF010008DF010008DF0100083F
:10012000DF010008DF010008DF010008DF0100082F
:10013000DF010008DF010008DF010008DF0100081F
:10014000DF010008DF010008DF010008DF0100080F
:10015000DF010008DF010008DF010008DF010008FF
:10016000DF010008DF010008DF010008DF010008EF
:10017000DF010008DF010008DF010008DF010008DF
:10018000DF010008DF010008DF010008DF010008CF
:10019000DF010008DF010008DF010008DF010008BF
:1001A000DF010008DF010008DF010008DFF810D0E0
:1001B00000F0ECFA00480047F5310008AFF300808A
:1001C000B04F00200648804706480047FEE7FEE79C
:1001D000FEE7FEE7FEE7FEE7FEE7FEE7FEE7FEE7F7
:1001E000D1200008AD01000840EA01039B0703D0BD
:1001F00009E008C9121F08C0042AFAD203E011F866
:10020000013B00F8013B521EF9D27047D2B201E027
:1002100000F8012B491EFBD270470022F6E710B50B
:1002200013460A4604461946FFF7F0FF204610BD64
:100230002DE9FE4F804681EA0300C00F0C46009076
:1002400021F0004123F00045B8EB0200A94105D29E
:100250004046214690461C460B46024623F000408D
:10026000104347D0270DC7F30A00C3F30A51029089
:10027000401A019040286BDAC3F3130040F4801B4E
:100280000098924620B10023D2EB030A63EB0B0BDC
:1002900001985946C0F14002504600F0C1F90646A7
:1002A0000D4650465946019A00F0C9F910EB080076
:1002B0006141002487EA115284EAE7731A4340D06F
:1002C000009A62B3019A012A4FEA075215DC001B1B
:1002D00061EB02014FF0004202EA0752CDE9004211
:1002E000001C41F5801132462B4600F000FA03B0A5
:1002F000BDE8F08F40462146F9E7001B61EB0201A3
:10030000001C41F5801300185B412018A2F500176E
:1003100047EB030140EAD570B6196D4111E06D0855
:100320004FEA360645EAC0754FEA0752001B61EBFB
:100330000201001C41F5801149084FEA3000001904
:10034000514132462B4603B0BDE8F04F00F0C0B932
:100350000098012240000023D0EB020263EBE0731F
:10036000009821464FEAE074B8EB000061EB04010D
:10037000E9E783F000435BE781F0004158E72DE9AE
:10038000FE4F81EA030404F0004421F00041009490
:100390004FF0000B23F0004350EA01045ED052EA14
:1003A00003045BD0C3F30A54C1F30A552C44A4F2EE
:1003B000F3340194A0FB0254C1F3130141F4801102
:1003C000C3F3130343F4801301FB024400FB034E09
:1003D000840A970A44EA815447EA8357A4FB0768D2
:1003E00002958D0A05FB07854FEA932C04FB0C54FC
:1003F0002705029D4FEA065847EA1637B5EB080570
:100400006EEB070C870E920E47EA811742EA8312C1
:10041000A7FB0201B6EB0B0164EB00042B0D43EAD2
:100420000C335E1844EB1C50DA465146E7FB0201E0
:10043000C5F313044FEA0B3343EA14534FEA043273
:10044000019C43EA0603A4F10C040294009CCDE94C
:1004500000B400F04CF903B0BDE8F08F0020014675
:10046000F9E72DE9F04D81EA030404F0004B21F097
:10047000004514464FF0000A23F0004150EA0502FF
:1004800020D054EA01021DD0C5F30A570246C5F335
:100490001303C1F31300C1F30A5640F4801543F46B
:1004A0008013A7EB0608101BD64608F2FD3873EB45
:1004B000050002D308F1010801E092185B41B8F190
:1004C000000F03DA00200146BDE8F08D00204FF454
:1004D0008011064684460EE0171B73EB050705D313
:1004E000121B63EB050306434CEA010C49084FEA73
:1004F000300092185B4150EA0107EDD152EA030047
:1005000012D082EA040083EA0501084305D0101BDB
:10051000AB4106D20122002306E000224FF0004347
:1005200002E06FF0010253101AEB06004CEB085189
:1005300010EB0A0041EB0B01BDE8F04D00F0C8B82C
:100540000EB5C10F80EAE0700844CA07002140F2EE
:1005500033438DE80E000A460B4600F0C8F803B09E
:1005600000BD00F0004230F000400AD0C10D01F59E
:100570006071C0F3160042EA0151C20840071143FE
:10058000704700200146704730B5041E71F1000429
:1005900004DB4FF00044404264EB0101141E73F190
:1005A000000405DB1C464FF00043524263EB04039A
:1005B0008B4208BF824230BD30B5041E71F1000489
:1005C00004DB4FF00044404264EB0101141E73F160
:1005D000000405DB1C464FF00043524263EB04036A
:1005E000994208BF904230BD01F0004330B421F081
:1005F000004150EA010206D00A0DA2F56072C1F373
:100600001301002A02DC30BC00207047440F44EA8A
:10061000C104C100E01830BC00EBC25000F021B8AA
:10062000202A04DB203A00FA02F1002070479140B2
:10063000C2F1200320FA03F3194390407047202AA7
:1006400006DBCB17203A41FA02F043EAE07306E0FA
:1006500041FA02F3D040C2F120029140084319460A
:1006600070470029A8BF7047401C490008BF20F010
:100670000100704710B4B0FA80FC00FA0CF050EAA8
:10068000010404BF10BC704749B1CCF1200421FA29
:1006900004F411FA0CF118BF012121430843A3EB24
:1006A0000C01CB1D4FEA00614FEA102042BF002031
:1006B00010BC704700EBC35010440029A4BF10BC0D
:1006C0007047401C490008BF20F0010010BC704773
:1006D00010B5141E73F1000408DA401C41F100014A
:1006E00092185B411A4301D120F0010010BD2DE9A1
:1006F000F04D92469B4611B1B1FA81F202E0B0FA98
:1007000080F220329046FFF78BFF04460F4640EA06
:100710000A0041EA0B0153465A46084313D01146DA
:1007200053EA010019D0C8F14002504600F040F8E9
:1007300005460E46504659464246FFF771FF0843AC
:1007400005D0012004E020463946BDE8F08D0020A8
:10075000054346EAE0762C4337430A986305E40AEA
:10076000A0EB08000022FD0A44EA47540A3002D5F3
:1007700000200146E9E7010510196941DDE9084556
:1007800000196941BDE8F04DA2E70000064C074D95
:1007900006E0E06840F0010394E807009847103451
:1007A000AC42F6D3FFF706FDE83300080834000832
:1007B000202A04DB203A21FA02F00021704721FAB6
:1007C00002F3D040C2F1200291400843194670471D
:1007D0007CB50121042001F075F84FF40064009409
:1007E00001208DF804008DF8060002228DF8052006
:1007F0008DF80700054D6946284600F067FB214645
:10080000284600F0BAFB02F01BFC7CBD0008024049
:1008100010B5044602F084FC5A2002F04BFC02F0B2
:10082000C3FC002002F046FC02F0BEFC204602F0B1
:1008300041FC02F0B9FCBDE8104002F093BC00009E
:1008400010B5074C03202070F0210648FFF7E5FCA7
:10085000002020739FED040A84ED180A607310BD18
:1008600010000020401C00200000000010B586B0E1
:100870000121084601F026F80121480701F03EF861
:100880001020049003208DF8140002248DF81540E8
:1008900004A90A4800F01AFB002000900190029081
:1008A0000394694600F01CF80121002000F008F8CC
:1008B0000021084600F066F806B010BD00000240B6
:1008C0000122064B8240002903D0186810431860AB
:1008D000704718689043186070470000007400402B
:1008E00030B5084C236840F6FE7282409343D1E94C
:1008F00000252A43D1E902510D432A4382401A437D
:10090000226030BD0074004010B510EE100A164988
:10091000884202DB9FED150A06E010EE100A14492A
:10092000884201DA9FED130ADFED130A20EE200A58
:1009300010EE100AFFF715FE9FED101B53EC112B64
:10094000FFF78FFDFFF750FE00EE100ABDEEC00A64
:1009500010EE100A81B2002000F014F80121BDE869
:100960001040002000F018B8CDCC4C40CDCC4C400D
:10097000CDCCCC3DCDCCCC3D00F07F4566666666E7
:1009800066660A4008B5034A104408300090009893
:10099000016008BD0074004002090120054B904031
:1009A000002903D019680143196070471968814311
:1009B000196070470474004070B586B00121084684
:1009C00000F080FF0121102000F0A6FF224E072238
:1009D0000A21304600F0B8FA07220921304600F01B
:1009E000B3FA00248DF8164001208DF81700022577
:1009F0008DF81450410204918DF8155004A9304629
:100A000000F064FA8DF814506802049004A930468E
:100A100000F05CFA4FF4E1300090ADF80440ADF81E
:100A20000640ADF80840ADF80C400C20ADF80A00C7
:100A30000A4C6946204602F00DF800F0A0FA0122A7
:100A400040F22551204601F0EAFF0121204601F045
:100A5000B3FF06B070BD000000000240001001406E
:100A6000002808D049F288020021491C9142FCD399
:100A7000401E0028F8D1704700224FF02043102874
:100A80000AD0B0F5807F09D0B0F5805F09D0D3F8E7
:100A90005801814309D107E0586EFAE7D3F8840082
:100AA000F7E7D3F8A400F4E70122104670470000EE
:100AB0008000A0F1C040002904D0016841F001018C
:100AC000016070470168024A1140016070470000F0
:100AD000FEFF0F008100A1F1C04100280CD043F2BD
:100AE000D2020A60401C8000A0F1C0406FF070424A
:100AF0000260C1F8042170474FF0204343F2DB024B
:100B00001A60EFE730B501688900A1F1C0410A68B9
:100B10003E4B1A40D0E901342343D0E903452C432E
:100B200023434469234384692343C4692343046AF8
:100B30002343446A2343846A2343C46A2343046BE4
:100B40002343446B234313430B608168082907D177
:100B500001688900A1F1C0410A6842F040020A60C0
:100B6000416BB1F5801F14D1016891B14FF0204164
:100B70004A6822F470020B6843F480130B600B6820
:100B800043F480730B60836B1B8A5B1E42EA035243
:100B90004A60816BD1E9002342EA03128B688C8999
:100BA0001B0243EA04431A430B8A42EA03520B7DB9
:100BB000896942EA03620A430168491C8900A1F17C
:100BC000C0410A60816AB1F5804F08D000686FF0BB
:100BD00070418000A0F1C040C0F8041130BDC16B6D
:100BE000D1E9002342EA03128B680C8A1B0243EA14
:100BF00004531A430B7D896942EA036200680A4381
:100C00008000A0F1C040C0F8042130BD8000E7FFA3
:100C1000D0E9001211438268C068521E520142EAB4
:100C2000402001430148016070470000500100A0CE
:100C300070B50468A100A1F1C041D1F84011CE0BFC
:100C4000F603D0E901121143D0E903231A431143FB
:100C50004269C36911438269056A11431943426AB3
:100C60002943114331434FF02046002C3CD0D6F8A5
:100C700040416FF30E042B4322431343C6F8403127
:100C800002689200A2F1C042C2F84011016871B33B
:100C90008900A1F1C041D1F8481101F07043816A87
:100CA0000A684C68521E641E42EA04148A68521E86
:100CB00044EA02240A8A521E44EA02421A43D6F83F
:100CC000483103F07043CC68898A641E2403491EAE
:100CD00044EA01511943C6F8481100688000A0F1A8
:100CE000C040C0F8482170BDC6F84011CEE7FFE70C
:100CF000D6F8481101F07041806A02684368521EBC
:100D00005B1E42EA03138268521E43EA0223C26852
:100D1000521E43EA0233028A521E43EA0243828A87
:100D2000007E521E43EA0252401E42EA006008431F
:100D3000C6F8480170BD000002490A6842EA400056
:100D400008607047540100A02DE9FC5F01210846AE
:100D500000F0B8FD0121022000F0B4FD01210420C3
:100D600000F0B0FD0121082000F0ACFD01211020B1
:100D700000F0A8FD0121202000F0A4FD0121402069
:100D800000F0A0FD0225009501248DF80440002606
:100D90008DF806608DF807408DF80550DFF81C913E
:100DA0006946484600F092F80221484600F0E5F80E
:100DB00000948DF804408DF806608DF807408DF89A
:100DC0000550DFF8FCA06946504600F07FF84FF070
:100DD0000808CDF800808DF804408DF806608DF885
:100DE00007408DF805506946364800F06FF80095C9
:100DF0008DF8046003278DF805708DF8075069465B
:100E0000504600F063F8CDF800808DF804608DF84E
:100E100007408DF80570DFF8B0B06946584600F01D
:100E200055F84FF08008CDF800808DF804408DF81B
:100E300006608DF807408DF805506946584600F069
:100E400045F8670200978DF804408DF806608DF82C
:100E500007408DF805506946504600F037F8CDF848
:100E600000808DF804408DF806608DF807408DF8FD
:100E700005506946504600F029F8200300908DF88F
:100E800004408DF806608DF807408DF805506946DE
:100E9000584600F01BF800978DF804408DF8066066
:100EA0008DF807408DF805506946484600F00EF869
:100EB0003946484600F05FF8BDE8FC9F0008024054
:100EC0000004024000180240000002402DE9F041F9
:100ED000002201274FF0030C07FA02F50B682B40A4
:100EE000AB422CD1066853000CFA03F4A64306600B
:100EF0000E79D0F800809E4046EA080606600E791A
:100F0000012E01D0022E12D18668A64386604E794A
:100F1000D0F808809E4046EA080686604668AE43E0
:100F2000466045688E799640B6B235434560C568DF
:100F3000A543C560CC799C40C3681C43C460521C67
:100F4000102AC9D3BDE8F08110B54B07DB0E9A40DB
:100F5000C90800EB8100016A0F249C40A143016293
:100F6000016A1143016210BD0246002012690A4263
:100F700000D001207047418370470183704708B556
:100F80004FF4C06000F044F825208DF800000020E8
:100F90008DF8010001208DF802008DF803006846ED
:100FA00000F002F808BD000030B50F23C27801251B
:100FB0000178002A1FD0154A126802F4E062C2F5D7
:100FC000E062C2F30722C2F10404D3404278A24097
:100FD00084781C401443220101F1E02181F80024AF
:100FE000007800F01F018D404009800000F1E020F2
:100FF000C0F8005130BD01F01F0085404809800055
:1010000000F1E020C0F8805130BD00000CED00E0A0
:101010000249084302490860704700000000FA05D1
:101020000CED00E070B5214C04202065204A6820BA
:10103000107086205070206D9070206D000AD07066
:10104000A2F6B8300079107101205071206D001D9A
:1010500020650021002004E0135C194489B2401C83
:1010600080B2236D9B1E9842F6D3206D104400F889
:10107000021C080A216D114401F8010C0D4D0221DA
:101080002846FFF778FF216D094889B202F028F958
:1010900002212846FFF771FF01F0B0F9BDE870406A
:1010A000012240F22551044801F0B9BC1000002093
:1010B00088100020000802400010014070B5214C4B
:1010C00004202065204A6820107086205070206D12
:1010D0009070206D000AD070A2F6B83000791071BF
:1010E00001205071206D001D20650021002004E0CA
:1010F000135C194489B2401C80B2236D9B1E984238
:10110000F6D3206D104400F8021C080A216D11442A
:1011100001F8010C0D4D02212846FFF72CFF216D2F
:10112000094889B202F0DCF802212846FFF725FFC2
:1011300001F080FABDE87040012240F225510448D8
:1011400001F06DBC10000020881000200008024053
:1011500000100140F8B50020009001264FF4A07166
:101160004248FFF75AF840F6B83529464048FFF79D
:1011700054F800203F496A460B185B791354401C11
:10118000C0B20428F8D33C4C9DED000A84ED150A4A
:10119000487A70B3012831D0022833D0032835D0E3
:1011A0000026A06D80004FF4FA61B0FBF1F0A16D54
:1011B000A1656082A06D4100E069FFF72EF8A06D87
:1011C0004100206AFFF729F804202065284B682099
:1011D000187086205870206D9870206D000AD870A5
:1011E000202018715E71206D001D206500220020F6
:1011F00014E0FFE743F69820A065D2E747F23050AD
:10120000A065CEE74EF66020A065CAE71B48A06542
:10121000C7E7195C11448AB2401CC0B2216D891E17
:101220008842F6D3206D184400F8022C216D100A74
:10123000194401F8010C124E02213046FFF79BFEC3
:10124000216D0B4889B202F04BF802213046FFF7BE
:1012500094FE29460748FEF7E0FFBDE8F84001226A
:1012600040F22551074801F0DABB0000500200208F
:1012700088100020D004002010000020C0D40100FD
:10128000000802400010014070B540F6B836314603
:101290002E48FEF7C2FF2E4C042020652B4B682001
:1012A000187086205870206D9870206D000AD870D4
:1012B0002220187101205871206D001D2065002228
:1012C000002003E0195C11448AB2401C256DAD1E5C
:1012D000A842F7D3206D184400F8022C216D100AA3
:1012E000194401F8010C1B4D02212846FFF743FE6B
:1012F000216D164889B201F0F3FF02212846FFF75D
:101300003CFE00256570E5659FED130A84ED0A0A31
:1013100094ED0A0AFFF7F8FA0320207065646571FE
:10132000E5640E4C80212046FFF725FE611520461E
:10133000FFF721FE31460A48FEF76FFFBDE8704017
:10134000012240F22551074801F069BB88100020B6
:1013500010000020000802400000000000040240CD
:10136000D0040020001001402DE9F0412DED028B4A
:1013700001276A4C08212046FFF7FDFD0520FFF7F5
:101380006FFB08212046FFF7F8FD0520FFF768FBFB
:1013900008212046FFF7EFFD4FF4A0716048FEF7EB
:1013A0003CFF40F6B83631465E48FEF736FF5E4CED
:1013B000002565646571A571E564A572E571257206
:1013C0006566E572A06D4100E069FEF726FFA06D3D
:1013D0004100206AFEF721FF80215448FFF7CDFD30
:1013E000012020706070A57094ED150A9FED508B60
:1013F0005148B5EEC00AF1EE10FA26DD94ED150A5B
:1014000010EE101A814220DA9FED4C0A84ED0B0A8F
:101410009FED4B0A84ED0A0A94ED0A0AFFF774FA6D
:101420009FED480A84ED0C0A94ED150A10EE100A9F
:10143000FFF797F853EC182BFEF7A1FFFFF7D4F84E
:1014400000EE100A84ED0D0A25E094ED150A10EE69
:10145000101A81421FDB9FED3C0A84ED0B0A9FEDC1
:101460003B0A84ED0A0A94ED0A0AFFF74DFA9FED54
:10147000380A84ED0C0A94ED150A10EE100AFFF7F5
:1014800070F853EC182BFEF77AFFFFF7ADF800EE7B
:10149000100A84ED0D0A04202065224A682010708D
:1014A00086205070206D9070206D000AD070302022
:1014B00010715771206D001D20650021002004E08F
:1014C000135C194489B2401CC0B2236D9B1E984224
:1014D000F6D3206D104400F8021C080A216D114457
:1014E00001F8010C1B4D02212846FFF744FD216D38
:1014F0000C4889B201F0F4FE02212846FFF73DFDB9
:1015000031461548FEF789FEBDEC028B0122BDE88D
:10151000F04140F22551114801F081BA0018024013
:10152000500200208810002010000020000402401B
:101530000000000000408F400000F0410000954294
:10154000E17A943F7B14AE3F0000F74248E1BA3F96
:101550003333F33F00080240D00400200010014064
:1015600070B540F6B83529462248FEF756FE224CA3
:10157000042020651F4B6820187086205870206D4D
:101580009870206D000AD87031201871207A587137
:10159000206D001D20650022002003E0195C11442D
:1015A0008AB2401C216D891E8842F7D3206D1844F1
:1015B00000F8022C216D100A194401F8010C0F4E9D
:1015C00002213046FFF7D7FC216D0A4889B201F0AD
:1015D00087FE02213046FFF7D0FC29460848FEF777
:1015E0001CFEBDE87040012240F22551054801F083
:1015F00016BA0000881000201000002000080240E9
:10160000D0040020001001402DE9F05F00257B4848
:10161000794CB0F83D00208240F6B832002178487D
:10162000FEF7E2FDA06B00B101250420744E4FF0DF
:1016300002084FF068094FF0860A4FF0320B00277E
:10164000BDB1218A628A91422ED3206586F800902E
:1016500086F801A0206DB070206D000AF07086F849
:1016600004B07771206D001D2065E07B012817D044
:1016700092E0206586F8009086F801A0206DB07099
:10168000206D000AF07086F804B07571206D001DA1
:101690002065E07B01287FD1E77386F805807BE039
:1016A000E77386F8058077E0208A4FF4FA614843B3
:1016B000E169800801EB400001F032FE208A4FF41E
:1016C000FA614843216A800801EB400001F028FEDE
:1016D000208A4FF4FA614843E169800801EB400039
:1016E00001F04EFE208A4FF4FA614843216A8008D7
:1016F00001EB400001F044FE208A4FF4FA614843B8
:10170000E169800801EB400001F03AFE208A4FF4C5
:10171000FA614843216A800801EB400001F030FE85
:1017200040F2D970206586F8009086F801A0206DFF
:10173000B070206D000AF07086F804B07571304DFD
:10174000208AAD1D2880608A6880208A4FF4FA6163
:10175000484361694FF47A7901EB50014A46281DEC
:10176000FEF742FDE07A6871208A4FF4FA6148433F
:10177000A1694A4601EB500105F2ED30FEF734FD58
:10178000206D001D2065A06B401EA063E07B01283A
:1017900002D1E77386F805800021002003E0325C67
:1017A000114489B2401C226D921E9042F7D3206DE5
:1017B000304400F8021C080A216D314401F8010C84
:1017C000104D02212846FFF7D6FB216D0C4889B247
:1017D00001F086FD02212846FFF7CFFB074840F6BF
:1017E000B8313830FEF719FDBDE8F05F012240F254
:1017F0002551054801F013B910000020980400207D
:10180000881000200008024000100140F8B5284C64
:1018100094ED180A8DED000A40F6B83529462548A2
:10182000FEF7FBFC08202065224B682018708620FC
:101830005870206D9870206D000AD8703320187190
:10184000607B5871A3F170000099C0F87610206D8C
:10185000001D20650022002003E0195C11448AB2BB
:10186000401C216D891E8842F7D3206D184400F872
:10187000022C216D100A194401F8010C0E4E0221B0
:101880003046FFF778FB216D0A4889B201F028FD48
:1018900002213046FFF771FB29460848FEF7BDFCE0
:1018A000BDE8F840012240F22551054801F0B7B8E3
:1018B000100000208810002000080240D004002002
:1018C00000100140054A002903D01168014311604E
:1018D0007047116881431160704700003038024042
:1018E000054A002903D0116801431160704711684F
:1018F000814311607047000038380240054A0029D2
:1019000003D0116801431160704711688143116071
:101910007047000040380240054A002903D0116892
:1019200001431160704711688143116070470000E6
:101930004438024070B5244B196801F00C01234C67
:1019400000291ED0224E04291DD008291DD0046074
:10195000196801F0F00109091E4A545C0168E14070
:1019600041601C6804F4E054A40A145D21FA04F4F4
:1019700084601B6803F460435B0BD25CD140C160A0
:1019800070BD0460E4E70660E2E70F4A121F1168C9
:10199000C1F38055116801F03F0135B1B6FBF1F19B
:1019A0001468C4F38814614305E0B4FBF1F11468D2
:1019B000C4F3881461431268C2F30142521C5200FE
:1019C000B1FBF2F10160C3E7083802400024F400E3
:1019D000001BB700000000202DE9FC5F01217C20E6
:1019E000FFF770FF02208DF804008DF8050000203D
:1019F0008DF806008DF80700012000906946D64852
:101A0000FFF764FA0C220021D348FFF79DFA022069
:101A100000906946D048FFF759FA0C220121CE48C0
:101A2000FFF792FA042500956946CB48FFF74EFA76
:101A30000C220221C848FFF787FA4FF00808CDF8BA
:101A400000806946C448FFF741FA0C220321C248CE
:101A5000FFF77AFA102700976946BF48FFF736FA72
:101A60000C220421BC48FFF76FFA4FF0200ACDF892
:101A700000A06946B848FFF729FA0C220521B648AC
:101A8000FFF762FA4FF48059CDF800906946B248EA
:101A9000FFF71CFA0C221146AF48FFF755FAE8028F
:101AA00000906946AC48FFF711FA0C220D21AA48B4
:101AB000FFF74AFA2E0300966946A748FFF706FA91
:101AC0000C220E21A448FFF73FFA6C0300946946EC
:101AD000A148FFF7FBF90C220F219F48FFF734FACA
:101AE0000120009069469D48FFF7F0F90C22002183
:101AF0009A48FFF729FA0220009069469748FFF7B5
:101B0000E5F90C2201219548FFF71EFA0095694678
:101B10009248FFF7DBF90C2202219048FFF714FAF4
:101B2000009769468D48FFF7D1F90C2204218B48B4
:101B3000FFF70AFACDF800A069468848FFF7C6F912
:101B40000C2205218548FFF7FFF900966946844875
:101B5000FFF7BCF90C220E218148FFF7F5F900943C
:101B600069467F48FFF7B2F90C220F217C48FFF746
:101B7000EBF90120009069467948FFF7A7F90C229C
:101B800000217748FFF7E0F9022000906946744889
:101B9000FFF79CF90C2201217148FFF7D5F980204D
:101BA000009069466F48FFF791F90C2207216D48B4
:101BB000FFF7CAF9E711009769466A48FFF786F907
:101BC0000C2208216748FFF7BFF94FF4007ACDF8DF
:101BD00000A069466348FFF779F90C2209216148A2
:101BE000FFF7B2F96011009069465E48FFF76EF9A1
:101BF0000C220A215B48FFF7A7F94FF4006BCDF8E0
:101C000000B069465748FFF761F90C220B2155488F
:101C1000FFF79AF9CDF8009069465248FFF756F958
:101C20000C2211464F48FFF78FF9A010009069462B
:101C30004C48FFF74BF90C220D214A48FFF784F975
:101C4000009669464748FFF741F90C220E214548A6
:101C5000FFF77AF9009469464248FFF737F90C22FA
:101C60000F214048FFF770F9009769463C48FFF79D
:101C70002DF90C2208213A48FFF766F9CDF800A0AB
:101C800069463748FFF722F90C2209213448FFF74B
:101C90005BF96011009069463148FFF717F90C2293
:101CA0000A212F48FFF750F900952F4D6946284625
:101CB000FFF70CF90C2202212846FFF745F9012015
:101CC000009069462846FFF701F90C2200212846BA
:101CD000FFF73AF9CDF800B069461F48FFF7F6F86C
:101CE0000C220B211C48FFF72FF9009469461B4872
:101CF000FFF7ECF80C220F211848FFF725F90097A1
:101D000069461648FFF7E2F80C2208211348FFF74E
:101D10001BF9CDF8008069462846FFF7D7F80C225A
:101D200003212846FFF710F90220009069460D486C
:101D3000FFF7CCF80C2201210A48FFF705F9012032
:101D4000009069460748FFF7C1F80C2200210548BA
:101D5000FFF7FAF8BDE8FC9F0014024000180240AB
:101D6000000C0240001002400008024000B593B091
:101D7000FFF732FE01210846FFF7B2FD0220019075
:101D80000822029206210391049105900690079083
:101D900000200890012109910A9210210B91402105
:101DA0000C9189000D910E90C8000F90400010908A
:101DB0004000119001A8129008A8FEF739FF00F02A
:101DC00002F813B000BD2DE9FF4101260096102551
:101DD000019500240294039420210020FEF74CFE7C
:101DE0000028F9D16846FEF713FF0A2000F038F802
:101DF0000227009701950294039420210020FEF70A
:101E00003BFE0028F9D16846FEF702FF0320009050
:101E100001950297039420210020FEF72DFE002853
:101E2000F9D16846FEF7F4FE40F222200421009129
:101E300001950296039020210020FEF71DFE002848
:101E4000F9D16846FEF7E4FE40F26A50FEF774FFEF
:101E500020210020FEF710FE0028F9D1BDE8FF8107
:101E600001B581B0054901984843009002E000980F
:101E7000401E009000980028F9D10CBDA0860100FA
:101E80001CB50021019100912E4A106840F4803069
:101E900010604FF4A043106800F4003000900198E7
:101EA000401C0190009810B901989842F3D1106835
:101EB000800302D50120009000E0009100980128E5
:101EC0003FD120484030016841F0805101601E49F7
:101ED000086840F4404008601A480830036803600E
:101EE000036843F400430360036843F4A0530360B2
:101EF000041F164B2360136843F08073136013684C
:101F00009B01FCD50A6842F480320A604A68D20319
:101F1000FCD50A6842F400320A604A689203FCD594
:101F20000B4A40F205711160016821F00301016064
:101F3000016841F0020101600168C1F381010229D9
:101F4000FAD11CBD00380240007000400C5A400716
:101F5000003C0240F0B52DED068B85B09FED4C8B1B
:101F60008DED028B4C4C207B00250126012855D19C
:101F700025730A200190494F9FED499B9FED4AAB85
:101F800017E0019837F91000FEF7DAFA53EC192B35
:101F9000FEF767FA53EC1A2BFEF7F1F99DED021BE1
:101FA00053EC112BFEF744F9CDE902010198401CD6
:101FB000019001985A28E4D39FED3D0B53EC102B70
:101FC0009DED020B51EC100BFEF74BFACDE902012F
:101FD0009DED020B53EC182B51EC100BFEF7D4FACD
:101FE00007D99DED020B51EC100B81F00041CDE9BA
:101FF00002019FED310B53EC102B9DED020B51ECC8
:10200000100BFEF72EFAFEF7EFFA00EE100A84ED41
:10201000180A6673F0212148FEF7FFF8A07B01281B
:1020200032D1A573E673264E80213046FEF7A3FF1A
:102030009FED240A84ED0A0A94ED0A0AFEF764FC77
:10204000657271153046FEF796FFE5640320207037
:10205000B1141D48FEF78FFF1C4C08212046FEF7E7
:102060008AFF0520FEF7FCFC08212046FEF785FFCD
:102070000520FEF7F5FC05B02046BDEC068B0821D7
:10208000BDE8F040FEF777BF05B0BDEC068BF0BDB4
:10209000000000000000000010000020401C002094
:1020A0009A9999999987A940000000000088C34037
:1020B00000000000000054400000000000408F407D
:1020C000000402400000000000000240001802402E
:1020D00010B51248016841F47001016010480168B0
:1020E00041F0010101600E4A0021083211600268CE
:1020F0000C4B1A400260031D0B4A1A60026822F45E
:102100008022026006480C300160FFF7B9FE0349E7
:102110004FF000608039086010BD000088ED00E0DD
:1021200000380240FFFFF6FE103000242DE9F05F7A
:102130002DED028B4FF0804B0121584600F0ACF999
:1021400000286CD08A49086800244FF4FA790128E5
:102150000AD188480268521C026002684A4503D9C5
:1021600004600C6084480460DFF810A2012150462E
:10217000FEF701FFDFF8088298F80000814E824DDB
:102180009FED828A824F012811D034603878DFF8C1
:1021900004C28149814B4FF003080122F0B30128AA
:1021A00068D07F4E02287DD0032862D1BDE07D48F3
:1021B000017821B100780128E8D13460E6E7306881
:1021C000401C306030680428E0D3346095ED000A8C
:1021D000FEF79AFB95ED000A10EE100AFEF7C1F922
:1021E0009FED711B53EC112BFEF722F8FEF7FCF963
:1021F00000EE100A85ED000A6D4895ED000AD0ED5D
:10220000000AB4EEE00AF1EE10FABFDD90ED000A2C
:1022100085ED000A88F80040346001E00DE0A2E09E
:1022200085ED008A95ED000AFEF76EFB4FF48051B4
:102230006048FEF7A0FE3C70A8E7DCF800000588C7
:102240000D800188198003885C495B4D0E8825F854
:10225000163000885A4B0D8823F815000888401C5A
:1022600008800888642872D30C805648027087F86A
:1022700000806CE0DCF8000005880D800188198082
:1022800003885249504D0E6825F816300088504B8F
:102290000D6823F815000868401C08600868642869
:1022A00055D300E003E00C604A4802704FE0DCF8D0
:1022B0000000008848493368096821F81300DCF8F9
:1022C0000000008845493368096821F81300306828
:1022D000401C30603068B0FBF9F109FB110028B9EF
:1022E0003F4802703F480168491C0160306801287E
:1022F00001D93D48027030683C490968884226D1BE
:1023000080215046FEF737FE85ED008A95ED000AE4
:10231000FEF7FAFA364804704FF400715046FEF7A3
:102320002AFE346087F8008011E0DCF800000388A2
:102330000B8000882F49336821F813003068401C57
:1023400030603068642802D934602B480270012163
:102350005046FEF712FEBDEC028B5846BDE8F05F1A
:10236000012100F07CB8BDEC028BBDE8F09F0000BD
:102370007C0000208C000020880000200004024027
:10238000110000206C000020380000200000000038
:102390001000002078000020800000208200002033
:1023A0005C000020120000202D431CEBE2361A3F97
:1023B0004000002000000240740100208600002040
:1023C00098000020840000205002002054000020CB
:1023D000301D002015000020300000202C000020BF
:1023E0001400002048000020170000206800002092
:1023F00019000020401C00201C0000200848018813
:1024000040F2B632914203D201883231018002E0BB
:102410004FF47A7101800188024800F01DB9000074
:10242000940000200000014010B500F05DF9BDE807
:10243000104000F06BB810B50A884B88CC881A435E
:102440008B8823431A430B891A434B8989891A4382
:102450000A43A0F8442010BDC94301827047C94314
:1024600001827047002904D0018841F001010180F8
:102470007047018821F0010101807047002905D0D3
:1024800030F8441F41F400410180704730F8441F88
:10249000C1F30E010180704702460020138A0B40F1
:1024A00092890A40002B02D0002A00D001207047F8
:1024B000002A03D082890A438281704782898A4335
:1024C000828170473EB501210846FFF717FA42F2B4
:1024D0000F7001900820ADF800000020ADF8080052
:1024E000ADF802004FF080446946204600F0B6F88F
:1024F00001212046FFF7B0FF012211462046FFF7D9
:10250000D7FF01212046FFF7ADFF3EBD70B58CB06F
:1025100001210846FFF700FA40F2E7300A90082050
:10252000ADF824000024ADF82C40ADF826408DF81D
:102530002E40214E09A9304600F090F86020ADF8F9
:1025400010000120ADF812000420ADF814001B4863
:1025500000880690ADF81C40ADF81E40B515ADF8EA
:102560002050ADF8224004A9304600F029F8082197
:10257000304600F059F8E800ADF800004010ADF822
:102580000200ADF804500B20ADF806002801ADF8AC
:102590000800ADF80A408000ADF80C0069463046EE
:1025A000FFF749FF01213046FFF75CFF012130466C
:1025B000FFF764FF0CB070BD0000014094000020E4
:1025C00030B5028C22F001020284058C8388028BD4
:1025D00022F0700222F003020C88144325F002025C
:1025E0008D8915434A882A430D4DA84202D00D4DCE
:1025F000A8420FD122F00805CA892A4322F0040517
:102600008A882A4323F4807323F400730D8A1D43C0
:102610004B8A2B438380048389684163028430BDE5
:102620000000014000040140028B22F008020A432E
:102630000283704706480188322903D30188323962
:10264000018001E0002101800188024800F004B807
:1026500094000020000001404163704730B50288BB
:10266000164C174DA0420DD0A8420BD0B0F1804FB0
:1026700008D0144B984205D0134B984202D0134B0C
:10268000984203D122F070034A881A43104B9842B3
:1026900006D0104B984203D022F440730A891A43A3
:1026A00002804A68C2620A880285A04201D0A8421C
:1026B00001D1897A01860121818230BD000001406B
:1026C000000401400004004000080040000C0040ED
:1026D000001000400014004010B500F03FF8BDE8C5
:1026E0001040FFF7EFBE00001CB501210846FFF7C0
:1026F000E9F801210846FFF7E5F8174C0122082107
:102700002046FEF721FC012207212046FEF71CFC93
:10271000012206212046FEF717FCA1150091022197
:102720008DF8041000218DF806108DF80710032194
:102730008DF8051069462046FEF7C8FB8021009100
:1027400069462046FEF7C2FB4021009169462046BB
:10275000FEF7BCFB1CBD00000000024008B54FF4B2
:10276000A060FEF755FC1C208DF8000001208DF8BC
:10277000010003218DF802108DF803006846FEF772
:1027800013FC08BD2DE9F047324CA0790025012645
:1027900000280AD16079012807D16571656400F0CD
:1027A00037FB01280CD02670A572A07A2A4FDFF8DB
:1027B000ACA04FF400784FF48059012802D01DE0FE
:1027C000A672F2E7A5726570A670E5656564E572AC
:1027D0004FF420712248FDF720FDE5642571E57076
:1027E0006572E5712572A563022020704146384666
:1027F000FEF7C3FB49465046FEF7BFFB2078022890
:1028000020D1607AF0B9207901281BD1257100F020
:102810004FFB012816D141463846FEF7ACFB80211C
:102820003846FEF7A8FB49465046FEF7A4FB9FED4D
:102830000D0A84ED0A0A94ED0A0AFEF765F825717F
:10284000E570E672E079012801D1E5712672BDE8F4
:10285000F087000010000020000402400000024049
:1028600050020020000000002DE9F047314C2168A3
:102870000026314FDFF8C480314D4FF001090029A7
:1028800025D0012933D002293ED02E4A032941D038
:10289000216868542068401C206021681068001D71
:1028A000814212D1002240F22551274800F0B7F8AA
:1028B0003E602660C8F800602448C0F8009028797F
:1028C000222802D12249FF200860BDE8F08768284D
:1028D00004D03E602660C8F80060F6E721686854BE
:1028E0002068401C20603E60C8F80090EDE7862814
:1028F00004D03E602660C8F80060E6E721686854AE
:102900002068401C2060E0E7216868542068401C73
:102910002060DAE7216868542068401C2060E8786D
:102920001060106800021060A878116808441060F8
:10293000CBE70000880000208C0000207C000020F5
:10294000D00400209000002000100140340000203E
:102950005800002070B5114C40F2255529462046FC
:1029600000F03DF8012809D12946204600F01CF866
:10297000204600F0CDF8C0B2FFF776FF08212046D0
:1029800000F026F8012808D10821204600F008F8B8
:102990002046BDE8704000F0BBB870BD001001409B
:1029A0008A05C9430180704740F66A120A0A01216C
:1029B0009140C94301807047002904D0818941F4C6
:1029C000005181817047818921F4005181817047D4
:1029D0000246002012880A4200D00120704770B5DC
:1029E000002440F66A12C1F3421301F01F050126CC
:1029F00006FA05F2012B0CD0022B0DD0838A13406E
:102A0000090A8E40008830400BB100B101242046F5
:102A100070BD83891340F3E7038A1340F0E710B5D4
:102A200040F66A13C1F3421301F01F040121A140D3
:102A3000012B07D0022B07D014303AB102680A43A9
:102A4000026010BD0C30F8E71030F6E702688A43E8
:102A5000026010BD7FB504460D46208A20F4405127
:102A6000E88808432082A08941F20C618843A98844
:102A70002A8911436A8902431143A181A08A20F463
:102A80004071A8890843A0826846FEF753FF1E489C
:102A9000844202D01D48844201D1039800E002988C
:102AA000A189090408D500EBC00101EB00102968D9
:102AB0004900B0FBF1F007E000EBC00101EB0010B2
:102AC00029688900B0FBF1F06422B0FBF2F1090142
:102AD0000B096FF018056B4300EB8300A3891D04FD
:102AE0004FF0320307D503EBC000B0FBF2F000F06B
:102AF0000700084306E003EB0010B0FBF2F000F023
:102B00000F00084320817FBD0010014000140140E8
:102B10008088C0F308007047C1F3080181807047C6
:102B20002DE9FC5F01214820FEF7CCFE01268DF83F
:102B3000046000248DF805408DF806408DF80740AC
:102B40000420009069468E48FEF7C0F904218C48A5
:102B5000FEF713FA770300978DF807406946884817
:102B6000FEF7B4F94FF002088DF8048003208DF8C9
:102B700005008DF806408DF8074008200090DFF82A
:102B8000049269464846FEF7A1F90C220321484603
:102B9000FEF7DAF94FF0100ACDF800A06946484672
:102BA000FEF794F90C2204214846FEF7CDF92025C2
:102BB000009569464846FEF789F90C2205214846EA
:102BC000FEF7C2F94020009069464846FEF77EF9BC
:102BD0000C2206214846FEF7B7F92C010094DFF8D5
:102BE000A8B169465846FEF771F90C2209215846EA
:102BF000FEF7AAF9009569466148FEF767F90C22CD
:102C000005215F48FEF7A0F9CDF800A069465C48B1
:102C1000FEF75CF90C2204215948FEF795F94FF4B0
:102C2000804ACDF800A069465548FEF74FF90C22BE
:102C30000E215348FEF788F9A501009569465048D2
:102C4000FEF744F90C220F214D48FEF77DF900965E
:102C500069464B48FEF73AF90C2200214848FEF736
:102C600073F9CDF8008069464548FEF72FF90C222C
:102C700001214348FEF768F98020009069464846E4
:102C8000FEF724F90C2207214846FEF75DF94FF4C0
:102C90008078CDF8008069464846FEF717F90C2287
:102CA00008214846FEF750F9009469464846FEF769
:102CB0000DF90C2209214846FEF746F966000096F8
:102CC00069464846FEF702F90C220A214846FEF7FB
:102CD0003BF9A000009069464846FEF7F7F80C2241
:102CE0000B214846FEF730F9E0000090694648465F
:102CF000FEF7ECF80C2211464846FEF725F900973E
:102D000069464846FEF7E2F80C220D214846FEF7D8
:102D10001BF9CDF800A069464846FEF7D7F80C220B
:102D20000E214846FEF710F9009569464846FEF721
:102D3000CDF80C220F214846FEF706F9CDF80080A9
:102D400069460F48FEF7C2F80C2208210C48FEF72E
:102D5000FBF8009469460A48FEF7B8F80C220921EE
:102D60000748FEF7F1F8009669460548FEF7AEF809
:102D70000C220A210248FEF7E7F8BDE8FC9F00009C
:102D8000000C0240001002400018024000B597B04D
:102D9000FFF7C6FE0220FDF79DFE01210846FEF763
:102DA0009FFD0F20009001901420029000200390BE
:102DB0000121049105910690022107910890099044
:102DC00010210A910B900C900D900E9009020F911A
:102DD0001090119013906846CDF854D0169007A823
:102DE000FDF790FE01210220FDF762FE17B000BD45
:102DF00002E008C8121F08C1002AFAD170477047C4
:102E0000002001E001C1121F002AFBD17047000021
:102E100070B52DED088B9FED1EBA14241D4D9FED4E
:102E20001E9B9FED1FAB35F91400FDF789FB53EC9A
:102E3000192BFDF716FB53EC1A2BFDF7A0FA41EC0A
:102E4000180B1BEE100AFDF78CFB53EC182BFDF74B
:102E5000EFF9FDF7C9FB0BEE100A641C502CE2D30E
:102E6000DFED110A8BEE200AB5EEC00AF1EE10FA82
:102E700001DAB1EE400AB5EEC00AF1EE10FA05DB58
:102E80000A4901208871BDEC088B70BD0020FAE76B
:102E900000000000500200209A9999999987A94052
:102EA00000000000000059400000704210000020A7
:102EB000F0B52DED028B85B09FED448B8DED028B2F
:102EC000444CE07800EB4001C1EBC010142101EB51
:102ED000800001904FF4F0751CE0E069019930F931
:102EE0001100FDF72DFB9FED3C1B53EC112BFDF763
:102EF000B8FA9FED3B1B53EC112BFDF740FA9DED0B
:102F0000021B53EC112BFDF793F9CDE90201019857
:102F1000401C0190E078002700EB4001C1EBC0109D
:102F2000019905EB800001268842D6D89FED2E0B33
:102F300053EC102B9DED020B51EC100BFDF791FAA9
:102F4000CDE902019DED020B53EC182B51EC100B57
:102F5000FDF732FB07D99DED020B51EC100B81F010
:102F60000041CDE90201E078401CE0709FED200BAC
:102F700053EC102B9DED020B51EC100BFDF704FBF5
:102F800004D2616E052901D8A17BC1B1616E2046D2
:102F9000052901D98673476694ED0D0A10EE100AD3
:102FA000FDF7DFFA9DED021B53EC112BFDF7ECFA58
:102FB0000AD86672012005B0BDEC028BF0BD606ED0
:102FC000401C6066A773E7E70020F4E700000000FC
:102FD00000000000100000209A9999999987A94053
:102FE000000000000088C3400000000000C07C40DA
:102FF0000000000000B09D401CB501210420FEF738
:1030000061FC4FF4A050009002208DF805000120D3
:103010008DF8040000218DF806108DF80700074C8C
:1030200069462046FDF752FFA1142046FDF7A5FF93
:1030300021152046FDF7A1FF1CBD0000000802403D
:10304000FFF7DABF0020401CC0B21E28FBD3704738
:103050001CB501210420FEF735FC4FF48060009080
:1030600002208DF8050000208DF8040001208DF865
:10307000070069460148FDF729FF1CBD0008024012
:103080001CB501210420FEF71DFC4FF48060009068
:1030900002208DF8050001208DF8040000218DF834
:1030A00006108DF8070069460148FDF70FFF1CBDAB
:1030B000000802402DE9F0410546FFF7E1FFFFF768
:1030C000C1FF0024154E4FF480574FF48068280646
:1030D00004D541463046FDF750FF03E041463046F7
:1030E000FDF749FFFFF7AEFF39463046FDF745FFD4
:1030F000FFF7A8FF39463046FDF73DFF072C03D107
:1031000041463046FDF739FF6806050EFFF79AFF86
:10311000641CE4B2082CDAD3BDE8F0810008024058
:1031200070B5FFF7ADFF0E4D4FF480642146284681
:10313000FDF723FFA60031462846FDF71EFFFFF7E7
:1031400081FF21462846FDF716FFFFF77BFF31463A
:103150002846FDF710FFBDE87040FFF773BF000081
:103160000008024070B5FFF78BFF0E4D4FF48054FE
:1031700021462846FDF7FFFEFFF764FFA610314603
:103180002846FDF7F8FEFFF75DFF21462846FDF7CC
:10319000F4FEFFF757FF31462846BDE87040FDF7C3
:1031A000ECBE00000008024070B5FFF751FF104C64
:1031B0004FF4805529462046FDF7DDFE26153146A1
:1031C0002046FDF7DAFEFFF73DFF29462046FDF7D2
:1031D000D4FEFFF737FF31462046FDF7C5FE2946EE
:1031E0002046FDF7C8FEFFF72DFF002070BD000050
:1031F00000080240FDF7A8FDFDF7DEFBFFF76CFAC3
:10320000FFF712F9FDF732FBFEF7B0FDFFF7BEFD49
:10321000FDF7DEFA2E4C08212046FDF7ACFE052016
:10322000FDF71EFC08212046FDF7A7FE0520FDF74F
:1032300017FC08212046FDF79EFE264C0320207037
:103240007F20FDF7E5FA0025FEF784FE606A01287D
:103250001FD165622048007930282AD008DC112867
:103260001AD012281BD020281CD0222806D11CE0FE
:10327000312823D0322824D0332825D040F6B83145
:103280001548FCF7CAFF012240F225511348FFF709
:10329000C6FBFFF777FAD7E7FDF7C4FEF9E7FDF7BE
:1032A0000DFFF6E7FDF756FFF3E7A564FDF7ECFF2A
:1032B000EFE7FDF7C5FAFEF757F8EAE7FEF750F932
:1032C000E7E7FEF7A1F9E4E7FEF7A0FAE1E700007F
:1032D0000018024010000020D0040020001001401F
:1032E0002DE9F04105460F4600240C4E0BE040212D
:1032F0003046FFF76DFB0028F9D0295D3046FFF717
:103300000BFC641CA4B2BC42F1D340213046FFF751
:103310005FFB0028F9D0BDE8F081000000100140FB
:10332000F0B541880180002300221421134D4FF491
:10333000F8776E10B3B130F91140B44204DD4C1E81
:1033400030F8144020F81140491CB942F2DB00F279
:10335000DE3001884180018881800188C180018838
:103360000181F0BD30F91140AC4205DA521CD2B2F5
:103370000A2AE9D30123E7E70022E5E734F3FFFF58
:10338000FEB54188018000226E4630F9123030F9D6
:1033900012401146151D12E030F81170A1EB020C1D
:1033A00026F81C7030F911709F4201DD30F91130A0
:1033B00030F91170A74201DA30F91140491CA942D5
:1033C000EADB0025002136F911703D44491C04292F
:1033D000F9DB291BC91A491020F81210521CB2F54A
:1033E000F87FD2DBFEBD000008340008000000209A
:1033F00098000000F02D0008A0340008980000207C
:10340000184F0000002E0008000000000102030415
:10341000010203040607080909000000000000007B
:103420000000000000000000FFFF0000000000C0DE
:10343000000080C0000000C0000080C0000000004C
:10344000000000000000000000000000000000007C
:10345000000000000000000000000000000000006C
:10346000000000000000000000000000000000005C
:10347000000000000000000000000000000000004C
:1034800000000064000000000000000000000000D8
:103490000000000000000000000000007D000000AF
:04000005080001AD41
:00000001FF
